:020000000C945E
:1000020050010C9400000C9400000C9400000C941D
:1000120000000C9400000C9400000C9400000C945E
:1000220000000C9400000C9400000C9400000C944E
:1000320000000C9400000C9400000C9400000C943E
:1000420000000C9400000C9400000C9400000C942E
:10005200000005072060000000000000005F0000B3
:100062000007000700147F147F14242A7F2A12231A
:100072001308646236495522500005030000001C33
:100082002241000041221C00082A1C2A0808083EBE
:100092000808005030000008080808080030300046
:1000A2000020100804023E5149453E00427F4000B4
:1000B20042615149462141454B311814127F1027A4
:1000C200454545393C4A49493001710905033649DC
:1000D200494936064949291E00363600000056367F
:1000E20000000008142241141414141441221408AC
:1000F200000201510906324979413E7E1111117EF9
:100102007F494949363E414141227F4141221C7F7C
:10011200494949417F090901013E414151327F0864
:1001220008087F00417F41002040413F017F0814C1
:1001320022417F404040407F0204027F7F0408103A
:100142007F3E4141413E7F090909063E4151215E00
:100152007F09192946464949493101017F01013F79
:100162004040403F1F2040201F7F2018207F631403
:100172000814630304780403615149454300007F76
:100182004141020408102041417F000004020102A3
:10019200044040404040000102040020545454787E
:1001A2007F484444383844444420384444487F38E3
:1001B20054545418087E090102081454543C7F0810
:1001C20004047800447D40002040443D00007F103C
:1001D200284400417F40007C041804787C08040411
:1001E2007838444444387C14141408081414187CD5
:1001F2007C080404084854545420043F4440203CE2
:100202004040207C1C2040201C3C4030403C442884
:100212001028440C5050503C4464544C440008365E
:10022200410000007F000000413608000201020484
:10023200027F4141417F30313233343536373839EC
:100242000000000103070F1F3F7FFF001027E80394
:1002520064000A000100001000011000010000000B
:100262000100000000000A0004004572726F720073
:100272002B002D002A002F0001002D4E414E004977
:100282004E4600000800040060020100910268026C
:10029200010093026A020100A2027A020000F894AD
:1002A200EE27ECBBF1E0FBBFEBBFE5BF8DE0A2E0C8
:1002B200BB27ED938A95E9F780E098E0A0E6ED93FD
:1002C2000197E9F7E6E8F2E085919591009761F0F0
:1002D200A591B59105901590BF01F00105900D9281
:1002E2000197E1F7FB01F0CFEFE5EDBFE8E0EEBFEC
:1002F200C0E6D2E00C94DD030E947C0E1A930A93AE
:1003020000E010E00E94A50A0E94B00E79F0AA81D6
:10031200BB818C819D81EAE0F0E060E070E00E94A8
:100322002B0E0E94AA0A0F5F1F4FECCFF801198112
:1003320008810C944A05BA93AA930E94AF0AEC81F1
:10034200FD810E94B60AAA81BB810E94DC0D0E9437
:10035200830E0E944F0DDF01CB010E94A0080E9474
:10036200400CDF01EAE0F0E00E94300E23C2442498
:10037200552488249924AA24BB24EAE0F0E00E94B0
:10038200BE0AE4E0F0E0E0939302F09394020E944C
:10039200C30AE0E0E0939902E0939A020E94C90A3C
:1003A200E0E0E0939502E0939602E0939B02E093F3
:1003B2009C02E0939D02E0939E020E94C30A0E9467
:1003C200D50A129724F5E0E0E0939902E0939A02AD
:1003D200A0919902B0919A021497B4F40E94DA0A99
:1003E2000E94D00DE358FD4FDF01E0919902F09198
:1003F2009A020E94DF0AE0E0F0E0ED93FC93A9E9A3
:10040200B2E00E94E40AE4CF0E94EA0AD8CF08953B
:100412000E94ED0AEAE0F0E00E94300EE85CFD4F37
:10042200E4913FC22697E4E5F0E0E883F983E0E057
:10043200EA83EB83EC83ED83DE0167D20C944A05F9
:10044200E0E0E4BBEFEFE5BBE0E0E1BBEFEFE2BBF6
:100452000895BA93AA93F201309749F4F401ADE7F3
:10046200B2E00E94F20AF40131964F010CC0E13071
:10047200A0E0FA0799F4A5E8B2E0F5010E94F20AB9
:10048200F50131965F01A881B981C2DF7E2E0E94FB
:10049200FB0AA72D0E9442080E94010B02C20E9481
:1004A200EB0465DFEAE0EA93EA93ACE6B2E00E948D
:1004B2004B0866240895BA93AA93E881F981E093E0
:1004C2009302F0939402F20131962F01E2E0F0E000
:1004D200E415F50511F4E3DF27C0E881F9813097CF
:1004E20029F40E94FB0AA2E7B2E01AC0E130A0E0C0
:1004F200FA0729F40E94FB0AA4E7B2E011C0E23035
:10050200A0E0FA0729F40E94FB0AA6E7B2E008C0BD
:10051200E330A0E0FA0741F40E94FB0AA8E7B2E048
:100522000E944B080E94010BBCC1E1E0F0E0E4151F
:10053200F50511F0B4DFB6C02297EAE0E883E0E007
:10054200E98348D20E94C90A0E94C30A0E94D50ABE
:10055200A815B905A4F40E94AF0AF4010E94070B82
:100562000E940C0B0E94DA0AADE7B2E00E94DF0A99
:100572000E94130BCE0EDF1E0E94EA0AE7CF0E94F2
:10058200C30A0E94D50AAA15BB05E4F40E94AF0A69
:10059200F5010E94070B0E940C0BA5E8B2E00E9435
:1005A200DA0A0E94DF0A0E94130BA0918D02B09119
:1005B2008E02EA0FFB1FE0938D02F0938E020E94DF
:1005C200EA0ADFCFE0919302F0919402309729F486
:1005D2000E941C0BEC0DFD1D1FC0E130A0E0FA07CC
:1005E20041F4A0918D02B0918E02F601EA1BFB0B41
:1005F20013C0E230A0E0FA0731F40E941C0BD601CE
:100602000E94E90D09C0E330A0E0FA0749F40E9414
:100612001C0BD6010E94010EE0938F02F093900210
:10062200A0918F02B09190020E94DC0D65DEE093F2
:100632009B02F0939C020E94C30AE0919B02F091FC
:100642009C020E94D50AAE17BF074CF5E0918F02BB
:10065200F0919002FA93EA93A0919B02B0919C02CE
:1006620011970E94DA0AAE1BBF0B65DEE0939D0272
:10067200F0939E02A0919D02B0919E02C9DE7E2E51
:10068200E881EA93EAE0EA93A72D0E944208E88112
:10069200F9813A96E883F9830E94EA0ACECF67DEAF
:1006A200662422960895BA93AA93AA81BB81AF3792
:1006B200E0E0BE0719F4A2E0B0E0FDDEAA81BB8152
:1006C200AF3BE0E0BE0719F4A6E0B0E0C2DEAA81CB
:1006D200BB81AF3DE0E0BE0719F4A5E0B0E0B9DEB2
:1006E200AA81BB81AF3EE0E0BE0719F4A4E0B0E00E
:1006F200B0DEAA81BB81A73FE0E0BE0719F4A3E008
:10070200B0E0D9DEAA81BB81AB3FE0E0BE0719F4BD
:10071200A9E0B0E09EDEAA81BB81AD3FE0E0BE076A
:1007220019F4A8E0B0E095DEAA81BB81AE3FE0E01B
:10073200BE0719F4A7E0B0E08CDEA881B981AF371B
:10074200E0E0BE0719F4A0E0B0E0B5DEA881B9810F
:10075200AF3DE0E0BE0719F4A0E0B0E07ADEA88188
:10076200B981AF3EE0E0BE0709F434D1A881B98176
:10077200A73FE0E0BE0719F4A1E0B0E09CDEA8814B
:10078200B981AB3FE0E0BE0719F4A3E0B0E061DE5F
:10079200A881B981AD3FE0E0BE0719F4A2E0B0E064
:1007A20058DEA881B981AE3FE0E0BE0719F4A1E0AE
:1007B200B0E04FDE2496089500E010E020E030E043
:1007C20031DE3EDE03B3112720B33327EFEFF0E033
:1007D200E017F10719F4E217F30771F0EFEBF0E01D
:1007E200E217F30771F0662019F4F4D0E1E06E2EFF
:1007F2001A930A93D90157DFAEE1B0E00E94E40BED
:10080200E1CF93DEDFCFFFCF0000C09A0000089552
:10081200C098C498C59808951A93F6DF19B3C09882
:10082200E12F19910895AA931A93E0E0EABBC19AC5
:10083200C298E981EF5F1E2F10FF02C0C49A01C067
:10084200C49811FF02C0C59A01C0C598E5DFE078DF
:10085200E9F7188126C0AA93A981E5DF0E94210B3E
:1008620020C0E091A002EA93E0919F02EF73E0645E
:10087200AE2FF1DFE091A002EA93E091A102E86BD2
:10088200AE2FE9DF0895AA93E981E0939F02E295F2
:10089200EF70E695E695E093A002E881E093A1026D
:1008A200E0DF22960895A0919F02AF5FA0939F027E
:1008B200A03818F0E0E0E0939F02E0919F02EF730E
:1008C20031F4E0919F02EA93A091A102DCDF089546
:1008D200AA93A091A002A7DFC29A0E94210B21969F
:1008E2000895A091A0029FDFE0E0EABBC19AC29AFC
:1008F20093DF0895AA93E981EA93E9810E942A0B82
:10090200F0DFAFDFEEDF0C943D0ABA93AA931A939D
:10091200B89AB99ABA9ABB9AC39ABC9ABD9A78DF26
:10092200C398A4E6B0E00E94E40BC39A10E0123030
:1009320040F41A93AFE38FDF1A931395A0EC8BDF89
:10094200F6CFE1E0E0936002E0E0E0936102E9814A
:10095200FA813097A9F0A981BA810E945F0EE093D3
:100962006402F093650212960E945F0EE093790290
:10097200F0937A02A981BA8114960E945F0E0AC08E
:10098200E0E0F0E0E0936402F0936502E093790224
:10099200F0937A02E0937B02F0937C02E1E0E09331
:1009A2006602E0936702E0936802EFEFE093690268
:1009B200E1E0E0937002E1E7F2E0FA93EA93EFEF0D
:1009C200EA93A8E0B0E00E94240A04D0E1E0188192
:1009D2000C94840A0E94C50E00E030E0E0916102AE
:1009E200E03009F00FEF383078F4E0E0EA93A32F1B
:1009F2003F5F49DF10E0A12F1F5FA03820F4A02F36
:100A02000E94300BF8CFEFCFE0E0EA93A0E03BDFAB
:100A1200E0E0EA93A0E055D30E94CC0E0C94A30A26
:100A2200AA931A93ED81EA93AD8164DF1E2F19DF39
:100A3200E981E73011F0E83039F4EB81EA93AA81D9
:100A42000E943F0AEB8308C0E33021F4EB81E0957A
:100A5200EB8302C0E03021F4EA81E0951E2302C05C
:100A6200E23029F4EA81AB81EA231E2B0EC0E13089
:100A720029F4EA81AB81EA231E2707C0E43029F476
:100A8200EA81E095AB81EA2B1E23A12F0E94300B55
:100A9200188126960895AA9323970E94C30EA889C7
:100AA200A03848F4AF85A03430F4AE85A03019F0F8
:100AB200AD85A03009F4C8C1EE85E887A889BB27B7
:100AC200EE85F0E0AE0FBF1FA138E0E0BE0720F0D8
:100AD200A889E0E8EA1BEE872D85AF85BB27ED8567
:100AE200F0E0AE0FBF1FA134E0E0BE0720F0AF85FB
:100AF200E0E4EA1BED87A985A63009F05BC0EC852E
:100B0200E13009F4A1C1E33039F4E0917B02F091C4
:100B12007C02309709F498C10885ED85E695E69543
:100B2200E6953E2FE22FE77019F4AD852A17E9F01A
:100B3200A02FBB27E32FF0E00E94E10DAA85BB8521
:100B42000E94340B269526952695532F5F935F5F5F
:100B5200E22FAF91EA1748F0102FE12F1150E03049
:100B620019F00E94390BF9CFF1CFAE850A1711F1B6
:100B7200EE85AA85BB85F0E00E94340BED85E77017
:100B820009F03F5F20E02F932F5FE32FAF91AE1765
:100B920088F41E851F931F5FE02FAF91AE1718F4E4
:100BA2000E94390BF7CFEE85AE81BF81F0E00E9443
:100BB200340BE9CFEF85E7703E2FED85E03009F485
:100BC20043C1EA85FB85EE83FF8310E0088930305C
:100BD20009F065C0AD85A83008F45CC0E985E03055
:100BE20011F0E33009F402C0E73009F402C0E83042
:100BF20009F402C0E63009F402C0E93009F402C087
:100C0200EA3021F40A93E8890E942A0B1F931F5F9E
:100C1200EE85AF91AE17B8F5A985A63061F461DE15
:100C220020DE0E94460BFA93EA935BDEAE2F0E940F
:100C3200860A39DE27C0E985E93011F450E00EC09A
:100C4200EA3011F45FEF0AC00E94460B0E944F0B7C
:100C52005E2FE985E73011F0E83021F40E94550B50
:100C62005E2F06C0E33011F4509502C0E03021F44B
:100C7200A52F0E94300B06C00E94590BEFEFEA939A
:100C8200AD85CEDEC3CFEF85E85FEF87ED85E85017
:100C9200ED87D1C05D8520E0E0E0ED877AC0E32FEB
:100CA200AD85AE0FA93020F42D85E0E0ED8703C0BD
:100CB200E8E0E31B2E2F3A93A22F0E94340A4E2F14
:100CC200E985E630F1F41F931F5FEE85AF91AE1711
:100CD200B8F40E945F0BAE2FE32F0E94C80D0E9452
:100CE200660BE32FA42F0E94C80DE095E1215E2B35
:100CF2000E94460BFA93EA93A52F0E94860AE3CF3D
:100D02002CC0E93011F450E003C0EA30A9F45FEFDF
:100D12000E94550BAE2FE32F0E94C00D5E2F1F9332
:100D22001F5FEE85AF91AE1730F40E94590B4A93C4
:100D3200A0E076DEF4CF11C01F931F5FEE85AF9166
:100D4200AE1758F40E94710BAE2FE32F0E94C00D14
:100D5200EA934A93AD8564DEEFCFED85E03009F486
:100D620073C0AD85A83028F4ED85E21B5E2FE0E06C
:100D720003C0532FED85E850ED8710E0EF85E85F63
:100D8200EF87E8E0E31B2E2F0889EA85FB85EE83D7
:100D9200FF83E52FF0E0EC5BFD4F4491E985E630FF
:100DA200F1F41F931F5FEE85AF91AE17B8F40E9466
:100DB2005F0BAE2FE22F0E94C00D0E94660BE22F46
:100DC200A42F0E94C00DE095E1215E2B0E94460BEC
:100DD200FA93EA93A52F0E94860AE3CF2CC0E9304A
:100DE20011F450E003C0EA30A9F45FEF0E94550B02
:100DF200AE2FE22F0E94C80D5E2F1F931F5FEE855C
:100E0200AF91AE1730F40E94590B4A93A0E008DE6E
:100E1200F4CF11C01F931F5FEE85AF91AE1758F448
:100E22000E94710BAE2FE22F0E94C80DEA934A93E3
:100E3200AD85F6DDEFCFE885AA85BB85F0E0EA0F48
:100E4200FB1FEA87FB87B9CE0E94CA0E61960895FE
:100E52000E94ED0A0E94B40E24F0E0E0F0E00C944F
:100E62003D0AA881B981A038E0E0BE0724F0EFE78F
:100E7200F0E00C943D0AE881F9810C943D0A0E944D
:100E8200ED0A0E94B40E24F0E0E0F0E00C943D0A7A
:100E9200A881B981A034E0E0BE0724F0EFE3F0E0DE
:100EA2000C943D0AE881F9810C943D0ABA93AA9305
:100EB20023970E947E0B8F01002E012A21F40E94AB
:100EC200850B0C94220A0E948A0B0F820E948A0BC5
:100ED2000E820E948A0B0886EB85A885EA1720F409
:100EE2000E94850B0C94220AF8010F5F1F4F549148
:100EF200A885BB27EE27A50FBE1FEB85F0E0EA17FA
:100F0200FB0720F00E94850B0C94220AEE81E695E5
:100F1200E695E6954E2FEE81E77009F04F5FEF817F
:100F2200E030B9F0A985BA85EC93A885EB85EA1B78
:100F3200F0E0DF01EF81F0E00E94E10DDF01E42F3C
:100F4200F0E00E94E10DE00FF11F0E94CA0E0C9426
:100F5200220A9801E52FF0E00E0F1F1FA885AF5F50
:100F6200A887A150EB85AE1760F4F9012F5F3F4FC0
:100F7200A491B0E0E42FF0E00E94E10D0E0F1F1FDC
:100F8200EDCFF901E491A985BA85EC93F8010E94AD
:100F9200CA0E0C94220AE0E0E0936202A09163027E
:100FA200BB270E948F0BF0E0AE0FBF1FE0916702DC
:100FB200F0E0AE0FBF1F63DFE09363020895AA93D0
:100FC20021970E947E0B309709F455C0AF81AA3059
:100FD20009F44FC0EF81EA93DE01179667DFAF0194
:100FE200309709F44AC0E0916602AE81EA0F3E2FC3
:100FF200A0916202BB27F0E0EA0FFB1F8F010138CC
:10100200E0E01E0718F0032F1127C5DFE09162020E
:10101200EA93E0916302EA93E885EA930E948F0BD8
:10102200EA93E1E0EA935A934A93A7E034DDE09130
:101032006202AE81EA0FEA93E0916302EA93E091E1
:101042006602EA930E948F0B0E94960BE091620265
:10105200EA93A09163020E948F0BEA0FEA933A93FC
:10106200E09167020E94960BE0E8F0E0E017F107DA
:1010720011F491DF02C0009362020E94CA0E289608
:101082000895AA93EA81EA93AA811BD0A88197DFE7
:101092000C94840ABA93AA931A93EC81EA93AC81D2
:1010A20010D0E981FA813196E983FA833197E4918C
:1010B2001E2FE03019F0A12F82DFF3CF18810C949C
:1010C200320AAA93A981BB27C3DEE0936202A881F8
:1010D200BB27D5DEE09363020C943D0A0E947C0E8E
:1010E2007B816A81F981E88177FB770F67FD716007
:1010F200972F9E5781F078F0983190F4AA27BB275A
:10110200882708948795B795A7959A95D1F7EA23EA
:10111200FB23682305C0E8947727EE27FF2766277D
:101122006F77769508F4606877F9A991B9918991FA
:101132009991EA17FB076807790797FB08950E94C0
:101142007C0E0E946D0E0E946F080E94720E21F4A6
:101152000E94A00B0C94A30ADEF70E94A00B0E942F
:10116200A30B0C94A30A0E947C0E24971A930A9351
:101172000E94AA0B0E94B80E2CF0EFEFFFEF6FE770
:101182007FEF73C00E94AF0B0E94770EADB7BEB760
:1011920011971F930F930E94EE0B0F911F910E94C4
:1011A200B40B0E94AA0BE3EFF4E065E37FE30E9435
:1011B200940D40F40E94B90B0E94B10C0E94B40B32
:1011C200015010400E94AF0B0E94A30B7F936F93BC
:1011D200FF93EF930E94AF0BA0E0B0E080E89FE3A3
:1011E2000E94B10CAF91BF918F919F910E944F0DC0
:1011F2000E94B40B0E94B90B0E94BB0BA6E2B2E4A0
:1012020085E69FE30E94BF0BEEE4F1E164E570E442
:101212000E94C40B0E94AA0B0E94010D7F936F9340
:10122200FF93EF930E94A50AADE4B1E184ED9FE341
:101232000E94AA0CAF91BF918F919F910E944F0D76
:101242007F936F93FF93EF93F8010E94D70D0E9453
:10125200770CA8E1B2E781E39FE30E94010DAF9111
:10126200BF918F919F910E94B10C198108812A969A
:1012720008950E947C0E28971A930A930E94C90B24
:10128200E0E5FCEA6EEA72EC0E94940D18F40E940A
:10129200CE0B83C0EA85FB856C857D850E94B00EEE
:1012A20029F4E0E0F0E060E87FE377C00E94C90B38
:1012B200E8E1F2E761EB72E40E94940D09F008F4B0
:1012C20005C0EFEFFFEF6FE77FE767C00E94C90B32
:1012D200EBE3FAEA68EB7FE30E94010DEA87FB8702
:1012E2006C877D870E94C90B2ADF0E94400C8F0108
:1012F2000E94C90B0E94D70D0E94770C0E94C40B5A
:10130200DF01CB01E0E0F0E060E07FE30E94C40B8C
:101312000E94B40B0E94B90B0E94BB0BADE6BCE469
:101322008CE69DE30E94010DA6EAB3EE86EE90E400
:101332000E94B10C0E94AA0B0E94010D0E94B40BE4
:101342000E94A50AA8E2BDE886EA91E40E94B10CD7
:101352000E94AA0A0E94AF0BAA81BB818C819D8147
:101362000E94B10CA3EFB4E085EB9FE30E94010D54
:101372007F936F93FF93EF930E94AA0B0E94A50A9B
:101382000E94AA0CAF91BF918F919F910E944F0D25
:101392000E94770ED8010E94FF0B198108812E96B8
:1013A20008950E947C0E24970E94D30B0E94B00ED7
:1013B20019F40E94CE0B45C0A885B9858A859B8504
:1013C2000E94B80E94F40E94D80B0E94B00E29F429
:1013D200E0E0F0E060E87FE334C0A885B9858A8563
:1013E2009B850E94DD0B45DF2CC00E94D80BDE01DD
:1013F2000E94400C0E94630E0E94A00B0E94770C78
:10140200DF01CB010E94D80B0E94BE0E19F00E9490
:10141200CE0B17C00E94D30B0E940B0CDF01CB0135
:101422000E94DD0B26DFE887F9876A877B87E881E0
:10143200E17019F40E94D30B04C00E94D30B0E94E6
:101442000B0C2C960895BA93AA93B981A881109691
:1014520031F0FC81EB816A8161931197E9F7EB81AD
:10146200FC8125960895AA93E881F0E0EC5BFD4F9C
:10147200A491E9810E94C00D22960895AA931A931D
:10148200E981E73011F0EA3019F41091600209C0E5
:10149200E93019F41091610204C0E830A1F410910E
:1014A2007002E0916102E03049F0103019F0EFEF84
:1014B200188129C0EA81E095188125C0103019F4FD
:1014C200E0E0188120C0EA8118811DC0BA93AA9376
:1014D200EA81E13021F4E881F981E49114C0E2303B
:1014E20029F4A881B9810E94930E0DC0E33041F422
:1014F200A881B981E0917902F0917A02099503C03D
:10150200A881B981EC9123960895AA93EB81E030EA
:1015120029F4E881A981BA81EC9314C0E23031F454
:10152200E881A981BA810E949F0E0CC0E33051F478
:10153200E981FA81FA93EA93AA81E0917B02F09120
:101542007C02099524960895EA81FB816C817D8154
:101552000895EA83FB836C837D830895E0E0F0E0E5
:1015620060E271E40E94770E08950E94D70D0E94F6
:10157200770CDF01CB010C94D209E0939102F09336
:1015820092020895E0E0E0939702E09398020895B2
:10159200CC24DD24E0E0E0938D02E0938E02E09320
:1015A2008F02E09390020895A0919702B091980261
:1015B2000895E0919702F09198020895EE0FFF1FAF
:1015C200AE0FBF1F0895ED91FD913196FE93EE93FC
:1015D2000895A7E9B2E0F7CFBA93AA93A881B98197
:1015E2000895EE0FFF1FEA0FFB1FA881B981A083A8
:1015F200B1830895E0919102EA93EAE0EA930895B3
:10160200E0919102F09192023A96B7CF3197CCDFF6
:10161200EA1BFB0BAACFA5E9B2E00E94400CED93B6
:10162200FC9308950E945F0EA0919502B0919602DC
:101632000E94E90D0895E0918D02F0918E020895C5
:10164200C198EFEFEABBE881EBBB0E9405040C9462
:101652000904E695E695E695AE2F0C9444040E94A3
:1016620069040C945404EA0FFB1FEE83FF83089570
:10167200EC85EA93EF81F8853196EF83F88731970D
:10168200FA93EA93A0E00C94860AEC85EA93EF8140
:10169200F8853196EF83F887319708956627772783
:1016A200DF01CB010C94670A5A93AA850C943F0A76
:1016B2000A930395E889EA935A9308950A93039546
:1016C200A8890E947B04E42308955E2FEC85EA93A7
:1016D200AF81B885882799270E94670A1E2E089530
:1016E2000A930395E889EA93EE85EA93E985FA85F8
:1016F2003196E987FA873197D1CF0E94C30EE091E4
:101702006402F09165020895E0E0F0E00E94CA0EE2
:101712000895F8010F5F1F4F04900895E09164024D
:10172200F09165023196E4910895EA93E0E0EA933C
:10173200E0E0F0E0FA93EA93A9E00C944C050E94F1
:10174200680E0895A0E0B0E080E89FE30E94AA0C32
:101752000895AE81BF81888599850895EE81FF81C4
:10176200688579850895EE83FF8368877987089570
:10177200F5DFEFCF0E94010DECDEE6CE0E94010DF7
:10178200DF01CB0108950E94860E0E94AA0C0895E3
:10179200AA85BB858C859D850895E0E0F0E060E038
:1017A20070E00895E885F9856A857B850895EC8166
:1017B200FD816E817F8108950E94B408AC81BD8154
:1017C2008E819F81DBCF109639F080ED97E00197F3
:1017D200F1F7A8951197C9F70895E991F9916991DF
:1017E200799177FB660F771F88277E57880B7D9349
:1017F2008C937EE7769567956EF00895E991F9915D
:101802006991799177FB660F771F7A0F76956795C5
:101812000EF0089530976040704009F070580895B6
:10182200552342F4503811F4E0FF04C03196691F89
:10183200791F6BF050E8572711F45F93CFC05F3FD9
:1018420031F0660F000C57956795752F08955F93D9
:1018520000200AF0CFC0C8C050E8192E1522880F08
:10186200991F9527550F879550E8072E0522660F79
:10187200771F7527550F67950895689401C0E894FE
:101882005F93F2DF703818F07F3F08F4A7C056E18B
:10189200571BAAF4519558300EF4593030F0EFEF3F
:1018A200FFEF6FEF7FE777F91AC077275523B9F07B
:1018B200EE0FFF1F661F771F5A95D1F710C07727CB
:1018C200583028F0EF2FF62F672F5850F9CF5523B5
:1018D20031F076956795F795E7955A95D1F70020FF
:1018E2000AF445D15F910895689401C0E894309755
:1018F20060407040B1F0002426F0772312F4009487
:1019020036D1172E7EE1112032F07A95EE0FFF1FAD
:10191200661F111CF9CFEF2FF62F612D5F938ADF1F
:101922005F9108954F93AF01FD01DA01AB01BC0154
:10193200CA01402D012C142E4F910895EA0FFB1F6E
:10194200681F0895E095F0956095EF5FFF4F6F4F28
:1019520008955F9381DF903871F150E8152604C035
:101962005F937ADF903839F1703821F1572F591B84
:101972002BF112F4D7DFFACF583118F0AA27BB2780
:101982008827583028F0AB2FB82F88275850F9CF26
:10199200552329F08695B795A7955A95D9F7502DD5
:1019A200512572F0CBDF38F46795F795E79573957B
:1019B20013F420C0B7DF3EDF5F910895D8F7FBCF65
:1019C200EA1BFB0B680B51F010F40094BBDF66239B
:1019D20092F3EE0FFF1F661F7A95CBF7EE27FF27D4
:1019E200662777275F910895EFEFFFEF6FE77FEFAD
:1019F2005F910895EFEFFFEF6FE77FE75F91089543
:101A02005F932ADF703851F3903841F30124089430
:101A1200791F23F41CF300203AF3ECCF0F921F93AB
:101A22002F933F934F93112722279927689FA00155
:101A32008F9F302D410D591F6B9F300D411D591F36
:101A42008E9F27D0BF9F25D06A9F23D0BE9F1DD0D7
:101A5200AF9F1BD0AE9F110D291F391F491F591F60
:101A6200E32FF42F652F522F4F913F912F911F910A
:101A72000F9066232AF0550FEE1FFF1F661F02C04C
:101A820073954BF2CDDE5F910895100D211D391F24
:101A920002C0200D311D491F591F08955F93DCDEDE
:101AA200703821F411200AF49FCFA4CF903809F4A2
:101AB20095CF01240894970B1BF4D4F30020F3CFA5
:101AC200792F1F932F933F934F931124112722278E
:101AD20033274427552790E2AE17BF0786074107F1
:101AE20030F0AE1BBF0B860B410B089401C08894EB
:101AF200551F221F331F111CAA1FBB1F881F441F03
:101B02009A9551F7F901612D4F913F912F911F91B4
:101B1200662332F0550FEE1FFF1F661F7A9543F2C0
:101B22007FDE5F91089599239AF0772342F0971709
:101B320048F029F4AE17BF07860720F031F09894D9
:101B42008894089598940894089518948894089510
:101B52007723C2F7971798F3A9F7EA17FB076807E5
:101B620088F399F3ECCFF195E195F0400895F09563
:101B720060957095E195FF4F6F4F7F4F0895EE236B
:101B82000E2EEA2F19F0EE0F0A94E9F70895EE23CC
:101B92000E2EEA2F19F0E6950A94E9F70895EE0F52
:101BA200FF1FEE0FFF1FEE0FFF1F08956F2F660F2F
:101BB200660B762F08958B2F880F880B982F089528
:101BC200FA9FF02DEB9FF00DEA9FE02DF10D0895A5
:101BD20054D0F6DF0EF4C7DF08950024112490E1FB
:101BE200AA0FBB1F001C111C0E1A1F0A18F40E0E9E
:101BF2001F1E01C0A1609A9599F7FD01D0010895B9
:101C02003CD0EBDF0EF4AFDF08953F934F935F9329
:101C1200002411244427552730E2AA0FBB1F881F36
:101C2200991F001C111C441F551F0E1A1F0A460B38
:101C3200570B28F40E0E1F1E461F571F01C0A1602E
:101C42003A9559F7FD01BC01D001CA015F914F914C
:101C52003F91089520D0D9DF0EF489DF0895E894EA
:101C6200B7FF04C0A095B09511966894F7FD7BDF8D
:101C7200B4DFFD010EF477DF0895E894F7FF02C0A8
:101C820072DF6894B7FF06C0A095B095119600F870
:101C9200039400FA0895E89477FF02C068DF68941D
:101CA20097FF0BC00024A095B09580959095119652
:101CB200801D901D00F8039400FA0895ED91FC91A7
:101CC20011970895ED93FD936D937C930895E881A8
:101CD200F9816A817B810895A881B9818A819B817A
:101CE2000895E883F9836A837B8308957A936A93DC
:101CF200FA93EA9308959A938A93BA93AA930895CA
:101D0200689401C0E89401D0F2DD182E862F612D6F
:101D1200192E972F712D1B2EBF2FF12D1A2EAE2F9C
:101D2200E12D0895E199FECFFF93FFB7F894AEBB82
:101D3200BFBBE09AEDB3FFBFFF910895E19B02C0E4
:101D4200A895FCCF9FB7F894AEBBBFBBE09A8DB30A
:101D5200E81719F0EDBBE29AE19A9FBF0895309718
:101D620060407040089500240A160B06089500246E
:101D72000A160B06080609060895EA17FB07680704
:101D8200790708955A934A933A932A931A930A9396
:101D920008955D814C813B812A81198108810895D2
:00000001FF
